:100000000C9434000C9451000C9451000C94510049
:100010000C9451000C9451000C9451000C9451001C
:100020000C9451000C9451000C9451000C9451000C
:100030000C9451000C9451000C9451000C945100FC
:100040000C9451000C9451000C9451000C945100EC
:100050000C9451000C9451000C9451000C945100DC
:100060000C9451000C94510011241FBECFEFD8E026
:10007000DEBFCDBF22E0A2EFB1E001C01D92A138EA
:10008000B207E1F711E0A0E0B1E0E6EBF1E102C078
:1000900005900D92A23FB107D9F70E9476020C9409
:1000A000D9080C94000080FF0BC05C9A81FF0AC045
:1000B0005D9A82FF09C05E9A83FF08C05F9A089527
:1000C0005C98F4CF5D98F5CF5E98F6CF5F98089571
:1000D00090E080E041E050E028B12C6328B968B19D
:1000E0009C012E5F3F4FFA0102C0EE0FFF1F2A95C1
:1000F000E2F79F012095262328B9F5E3FA95F1F759
:1001000000001D9909C0FC01EE0FFF1FE80FF91F49
:10011000E050FF4F808108951C9909C0FC01EE0F4B
:10012000FF1FE80FF91FE050FF4F818108951B99D1
:1001300009C0FC01EE0FFF1FE80FF91FE050FF4F51
:100140008281089501968430910531F680E008950A
:1001500030E020E0822F49B150E0022E02C05595D8
:1001600047950A94E2F740FD0AC02FEF30E792E08E
:10017000215030409040E1F700C0000008952F5F0B
:100180003F4F2430310531F78FEF0895CF93C82FBB
:10019000299A82958F700E9453002998299A8C2F52
:1001A0000E945300299887EC90E00197F1F700C076
:1001B0000000CF910895289A0C94C600CF93DF9346
:1001C000EC018991882319F00E94DB00FACFDF91BE
:1001D000CF91089528980C94C6000F931F93CF9346
:1001E000DF938C0180EC0E94EA0080EC0E94EA0020
:1001F000C0E180E20E94DB00C150D9F780EC0E9490
:10020000EA00F801108211821282138214820E9485
:100210006800882339F08FE39CE90197F1F700C06B
:100220000000F5CF9FEFE3ECF9E09150E040F040A3
:10023000E1F700C00000C0E00E946800D82F0E94D3
:10024000A800DD2371F180ED8D0F8A3008F5F801EB
:10025000EC0FF11DD08380E48C0F80680E94EA00CF
:100260008D2F0E94DB00CF5F0E946800882339F049
:100270008FE39CE90197F1F700C00000F5CF9FEFF5
:10028000E1EEF4E09150E040F040E1F700C0000002
:10029000C43091F6F8011482DF91CF911F910F9134
:1002A00008958111F5CFCC2339F2DFEFDC0FF8018F
:1002B000ED0FF11D1082C15CC0688C2F0E94EA0016
:1002C00080E20E94DB008C2F0E94EA00CD2FB4CF89
:1002D00081E00E94EA008FE39FE10197F1F700C0FF
:1002E00000000895EF92FF920F931F93CF93DF9337
:1002F000CDB7DEB72A970FB6F894DEBF0FBECDBFDD
:100300000E94680180E80E94EA008CE091E00E946F
:10031000DE00CE0101960E94ED000E94680180E897
:100320000E94EA0086E191E00E94DE00CE0106967E
:100330000E94ED000091F20183EFE82E81E0F82E9B
:1003400010E00117B1F0BE016F5F7F4FC7010E943F
:100350002F06892B49F4BE016A5F7F4FC7010596BE
:100360000E942F06892B31F01F5F8EE0E80EF11CF2
:10037000E8CF1FEF812F2A960FB6F894DEBF0FBE8D
:10038000CDBFDF91CF911F910F91FF90EF90089516
:100390000F931F93CF93DF93CDB7DEB72C970FB694
:1003A000F894DEBF0FBECDBF19821A821B821C8259
:1003B0001D821E821F8280EC0E94EA0010E180E212
:1003C0000E94DB001150D9F780EC0E94EA000E94E5
:1003D0006800882339F08FE39CE90197F1F700C0AA
:1003E0000000F5CF9FEF23EC89E091502040804042
:1003F000E1F700C0000010E00E946800082F0E9492
:10040000A800002309F451C080ED800F8A30F8F471
:10041000E1E0F0E0EC0FFD1FE10FF11D0083802F04
:100420000E94DB001F5F0E946800882339F08FE381
:100430009CE90197F1F700C00000F5CF9FEF21EE96
:1004400084E0915020408040E1F700C00000193066
:1004500099F6E1E0F0E0EC0FFD1FE10FF11D1082D5
:100460004AE050E0BE01655F7F4FCE0101960E94D9
:100470008304EB85FC852081211105C0462F372F91
:10048000282F97FF04C04FEF3FEF2FEF9FEF642F10
:10049000732F822F2C960FB6F894DEBF0FBECDBF00
:1004A000DF91CF911F910F910895813021F4112395
:1004B00009F4A2CFCECF8111CACF112309F49CCF6A
:1004C0000FEF010FE1E0F0E0EC0FFD1FE00FF11D79
:1004D0001082115C1068812F0E94EA0080E20E9465
:1004E000DB00812F0E94EA00102F86CFCF93DF938D
:1004F000CDB7DEB72E970FB6F894DEBF0FBECDBFD7
:100500008AB1807F8AB98BB18F608BB9549A559A22
:10051000569A579A219A209A8FE59AEE0197F1F709
:1005200000C000002898299813E0299A83E00E94CF
:10053000530029988FE19EE40197F1F700C0000075
:10054000115099F7299A82E00E94530029988FE967
:100550009FE00197F1F700C0000088E20E94EA00E6
:1005600088E00E94EA0081E00E94EA008FE39FE1B8
:100570000197F1F700C0000086E00E94EA008CE0DD
:100580000E94EA0087B18C6387B984B1877C84B903
:1005900085B1886385B99EE0392E25E8C22E21E019
:1005A000D22E9E012F5F3F4F79010E94680180E8A3
:1005B0000E94EA00173088F4E12FF0E0EE51FD4F81
:1005C0000C942906E9024203450348034B034E03FA
:1005D000510381E291E00E94DE000E94A8008F3F5B
:1005E000E1F3823009F460C0833009F469C08130DE
:1005F000A1F7113009F4AAC008F471C0123009F44F
:10060000F3C0133091F60E947201082F8F3F09F456
:1006100025C10E94680180E80E94EA0083E691E01B
:100620000E94DE000E94C801202F30E0329EF001BF
:10063000339EF00D1124ED50FE4F428453846484A8
:100640007584461657066806790608F4F8C0329E87
:10065000F001339EF00D1124ED50FE4F5301420185
:10066000861A970AA80AB90AB501A40142875387D6
:10067000648775870E94680180E80E94EA0082EB27
:1006800091E038C082E391E0A6CF82E491E0A3CF6D
:1006900082E591E0A0CF8CE091E09DCF86E191E0F2
:1006A0009ACF83E691E097CF1F5F13703FEF83EC03
:1006B00099E0315080409040E1F700C0000075CFD4
:1006C000112311F08FEF810F2FEF33EC99E02150C0
:1006D00030409040E1F700C00000182F66CF8091B5
:1006E000F2018A3088F00E94680180E80E94EA00E6
:1006F0008DE691E00E94DE002FEF37EA81E621507F
:1007000030408040E1F7D9CF0E94680180E80E9424
:10071000EA008CE091E00E94DE00C7010E94ED003B
:100720007090F20183EF882E81E0982E012F7016D1
:1007300009F4B6C0B701C4010E942F062EE0820E54
:10074000911C892B09F49BC00F5FF1CF0E947201AD
:10075000082F8F3FC1F10E94680180E80E94EA00E3
:100760008AE791E00E94DE00309EF0011124ED50F6
:10077000FE4FDF011A9613968C9113978F93129662
:100780008C9112978F9311968C918F9382858F9372
:10079000DF92CF92FF92EF920E94380680EC0E9487
:1007A000EA00C7010E94DE003FEF8BE792E931507B
:1007B00080409040E1F700C000000FB6F894DEBF23
:1007C0000FBECDBFF2CE0E94680180E80E94EA0011
:1007D00089E891E00E94DE003FEF87EA91E6315020
:1007E00080409040E1F769CF0E947201082F8F3F4F
:1007F000A9F10E94680180E80E94EA0083E691E086
:100800000E94DE000E94C801309EF0011124ED50CC
:10081000FE4F4284538464847584DC01CB01840DD3
:10082000951DA61DB71D82879387A487B5870E9453
:10083000680180E80E94EA0082E991E05BCF0E94B3
:10084000680180E80E94EA0084EC91E00E94DE00EA
:1008500080EC0E94EA0081ED91E04CCF0E9468019B
:1008600080E80E94EA0083EA91E00E94DE009FEFA8
:1008700027EA31E6915020403040E1F71ECF0E9438
:10088000680180E80E94EA0088ED91E00E94DE00A5
:100890008FEF97EA21E6815090402040E1F70DCF9D
:1008A0003FEF89E698E1315080409040E1F700C089
:1008B00000000E94680180E80E94EA0086E191E061
:1008C0000E94DE00CE0106960E94ED001B861C866B
:1008D0001D861E86A091F20181E08A0F8093F201AD
:1008E0003A9ED0011124AD50BE4FF701832D0190E7
:1008F0000D928A95E1F70E94680180E80E94EA0063
:100900008BEE91E0F7CEB0E0A0E0E9E8F4E00C94E3
:10091000E4055C016B017A016115710519F0FB01B9
:1009200091838083E114F10451F0C701029783970A
:1009300030F040E030E020E090E072C05E01E50180
:100940002196F5011081812F90E00E949A05892B54
:10095000A9F71D3201F52196F501118101E0E1149D
:10096000F10409F4DAC0F0E1EF16F10409F082C0F5
:10097000103359F488818F7D883509F076C019814C
:1009800022960260F0E1EF2EF12C812C912CA12C0B
:1009900088E0B82E8CC01B3221F4E5012296F501C7
:1009A000118100E0DCCFEAE0EE16F10409F4BBC0EF
:1009B000F0E1EF16F10409F06DC0E7CF78E0E72E23
:1009C000F12C812C912CA12C60E1B62E70C03FE956
:1009D000310F3A3128F439EA332E80C021E09AC031
:1009E000302F3170C114D10431F0222309F1219745
:1009F000F601D183C08327FF21C060E070E080E072
:100A000090E8311104C06FEF7FEF8FEF9FE722E294
:100A100030E03093800220937F02462F372F282F1B
:100A2000642F732F822FCDB7DEB7E1E10C9400065F
:100A300001FF04C02297F601D183C083332341F024
:100A400090958095709561957F4F8F4F9F4FE5CF23
:100A500097FFE3CF82E290E09093800280937F0241
:100A60006FEF7FEF8FEF9FE7D8CF10E3E114F10432
:100A700009F4A4CF28E0E216F10409F4A2CF0CF0A7
:100A800092CF812C912CA12CE0E4BE2E82E0E816BE
:100A9000F10469F060E070E080E090E897010F2CCD
:100AA000000C440B550B0E94B60549015A0120E089
:100AB00060E070E0CB0127010F2C000C660877087E
:100AC000FE0150ED352E310E39E0331540F43FEB89
:100AD000310F3A3108F07BCF49EC342E310E3E1401
:100AE0001F040CF07DCF27FD15C086169706A806BB
:100AF000B90678F0A30192010E94A605630D711D4D
:100B0000811D911D61307105810520E8920708F46F
:100B100065CF2FEF21961081D3CF103309F42ACF60
:100B20002AE0E22EF12C9CEC892E982CA82C9CE03B
:100B3000B92EBDCF91110C94A305803219F08950C4
:100B40008550C8F70895992788270895DB018F936A
:100B50009F930E94D805BF91AF91A29F800D911DD8
:100B6000A39F900DB29F900D11240895A1E21A2E1B
:100B7000AA1BBB1BFD010DC0AA1FBB1FEE1FFF1F41
:100B8000A217B307E407F50720F0A21BB30BE40B91
:100B9000F50B661F771F881F991F1A9469F76095D8
:100BA0007095809590959B01AC01BD01CF01089592
:100BB0000E941A06A59F900DB49F900DA49F800DD2
:100BC000911D112408952F923F924F925F926F9240
:100BD0007F928F929F92AF92BF92CF92DF92EF92CD
:100BE000FF920F931F93CF93DF93CDB7DEB7CA1B4E
:100BF000DB0B0FB6F894DEBF0FBECDBF09942A8879
:100C0000398848885F846E847D848C849B84AA8420
:100C1000B984C884DF80EE80FD800C811B81AA81AD
:100C2000B981CE0FD11D0FB6F894DEBF0FBECDBF78
:100C3000ED010895A29FB001B39FC001A39F700D65
:100C4000811D1124911DB29F700D811D1124911DD4
:100C50000895EE0FFF1F0590F491E02D0994FB011C
:100C6000DC018D91019080190110D9F3990B089541
:100C7000AEE0B0E0EEE3F6E00C94F1050D891E89DC
:100C800086E08C831A8309838FEF9FE79E838D8391
:100C9000AE01475E5F4F6F89788DCE0101960E944D
:100CA0005B062F813885020F131FF80110822E96E4
:100CB000E4E00C940D06ABE0B0E0E1E6F6E00C9465
:100CC000E3057C013B018A01FC01178216828381C6
:100CD00081FFC8C1CE0101965C01F7019381F30148
:100CE00093FD859193FF81913F01882309F453C1BE
:100CF000853239F493FD859193FF81913F018532CF
:100D000029F4B70190E00E944B08E7CF912C212CE9
:100D1000312CFFE1F31538F08B3211F190F4803271
:100D200009F1833229F137FC3CC020ED280F2A302D
:100D300050F536FE20C08AE0989E200D1124922E98
:100D400006C08D3291F0803371F7689430F8F3016A
:100D500093FD859193FF81913F018111DACF21C0ED
:100D6000689431F8689432F8F2CF689433F8EFCF92
:100D7000689434F8ECCFEAE02E9E200D1124222E48
:100D8000689435F8E4CF8E3229F436FC04C16894B7
:100D900036F8DDCF8C3619F4689437F8D8CF88361A
:100DA000B1F2982F9F7D95549330E0F08336A1F1F6
:100DB0008337C1F1833509F063C02801F2E04F0E9B
:100DC000511CF801C080D180692D70E036FC02C052
:100DD0006FEF7FEFC6010E9435084C01689437F829
:100DE00082010AC00C5F1F4FFFE3F98388248394BC
:100DF000912C6501E89437F833FE2DC0522C8114F4
:100E0000910471F5552009F468CFB70180E290E0B4
:100E10000E944B085A94F6CFF801808189830E5FB7
:100E20001F4FE4CF2801F2E04F0E511CF801C080A3
:100E3000D180692D70E036FC02C06FEF7FEFC601F4
:100E40000E9440084C018201D5CFB70180E290E0BA
:100E50000E944B082A942814190409F0B0F7CECF49
:100E6000F60137FC859137FE81916F01B70190E063
:100E70000E944B0851105A94F1E08F1A9108BFCF8D
:100E8000843619F0893609F077C0F80137FE6BC057
:100E900060817181828193810C5F1F4FF32DFF76FA
:100EA0003F2E97FF09C090958095709561957F4F73
:100EB0008F4F9F4F689437F82AE030E0A5010E94D9
:100EC0007B08C82ECA188C2C432C36FE0CC0E89424
:100ED00040F8C91440F434FE05C032FC03C0F32DC1
:100EE000FE7E4F2E892C44FE95C0FE01EC0DF11DB7
:100EF0008081803309F087C0242D297E422E842DE5
:100F00008870582E43FC95C040FE8FC09C2C8214E4
:100F100018F42C0C922C981844FE91C0B70180E371
:100F200090E00E944B0842FE09C088E790E041FE35
:100F300002C088E590E0B7010E944B08C91408F48C
:100F40008AC0CA94D12C9FEFC91AD90ACA0CDB1CDB
:100F5000F60182916F01B70190E00E944B08AC143A
:100F6000BD04B1F74FCF60817181072E000C880B53
:100F7000990B0E5F1F4F92CFD32CE894D4F82AE040
:100F800030E0853739F1232D297FD22E8F3601F1BC
:100F900048F48835A9F0F701868197812B96E2E124
:100FA0000C94FF05803749F08837A9F7D4FE02C0BA
:100FB0006894D2F820E130E00DC06894D4F8F6CF00
:100FC00034FE03C0822F8660D82E20E132E002C0BA
:100FD00028E030E0F801D7FE0FC060817181828186
:100FE00093810C5F1F4FA5010E947B08C82ECA1871
:100FF0003D2CE89437F867CF6081718190E080E004
:101000000E5F1F4FF0CF42FC02C0839478CF8394D1
:10101000839475CF842D867809F471CFF6CFB7010C
:1010200080E290E00E944B0883948214C0F3512C1C
:1010300073CF522C5818821408F46ECFF8CF842D39
:10104000867809F47BCF8BE241FE80E247FC8DE29B
:10105000B70190E071CFB70180E390E00E944B08A8
:101060009A946CCF8FEF9FEF99CFFC010590615060
:1010700070400110D8F7809590958E0F9F1F0895AE
:10108000FC016150704001900110D8F78095909557
:101090008E0F9F1F08950F931F93CF93DF93182FE9
:1010A000092FEB018B8181FD09C01FEF0FEF812F0D
:1010B000902FDF91CF911F910F91089582FF14C05F
:1010C0002E813F818C819D81281739073CF4E8816E
:1010D000F981CF0101969983888310838E819F8146
:1010E00001969F838E83E3CFE885F985812F09954B
:1010F000892BA1F3DACFFA01AA27283051F1203148
:1011000081F1E8946F936E7F6E5F7F4F8F4F9F4F9B
:10111000AF4FB1E03ED0B4E03CD0670F781F891FDD
:101120009A1FA11D680F791F8A1F911DA11D6A0FAB
:10113000711D811D911DA11D20D009F468943F915E
:101140002AE0269F11243019305D3193DEF6CF015D
:101150000895462F4770405D4193B3E00FD0C9F723
:10116000F6CF462F4F70405D4A3318F0495D31FD90
:101170004052419302D0A9F7EACFB4E0A6959795E3
:10118000879577956795BA95C9F7009761057105B9
:1011900008959B01AC010A2E069457954795379503
:1011A0002795BA95C9F7620F731F841F951FA01D5D
:0611B0000895F894FFCF42
:1011B6003132333435363738392A3023456E746543
:1011C600722049443A00456E7465722050494E3A81
:1011D60000312E437265617465204163636F756EDD
:1011E6007400322E436865636B2042616C616E63E6
:1011F6006500332E4465706F736974204D6F6E659C
:101206007900342E5769746864726177204D6F6E69
:10121600657900416D6F756E743A2024004D6178D2
:10122600206163636F756E74730042616C616E63F7
:10123600653A202400256C6400496E76616C696409
:1012460021004465706F73697420737563636573F9
:10125600732100496E76616C6964206C6F67696EF4
:1012660021005769746864726177207375636365DA
:1012760073732100496E73756666696369656E747A
:101286000066756E64732100494420616C72656165
:101296006479206578697374732100446F6E6521E3
:0212A600000046
:00000001FF
